{
  "_format": "hh-sol-artifact-1",
  "contractName": "RedPacketFactory",
  "sourceName": "contracts/RedPacketFactory.sol",
  "abi": [
    {
      "anonymous": false,
      "inputs": [
        {
          "indexed": false,
          "internalType": "address",
          "name": "redPacketAddress",
          "type": "address"
        },
        {
          "indexed": true,
          "internalType": "address",
          "name": "creator",
          "type": "address"
        },
        {
          "indexed": false,
          "internalType": "uint256",
          "name": "totalClaimCount",
          "type": "uint256"
        },
        {
          "indexed": false,
          "internalType": "uint256",
          "name": "totalBalance",
          "type": "uint256"
        }
      ],
      "name": "RedPacketCreated",
      "type": "event"
    },
    {
      "inputs": [
        {
          "internalType": "uint256",
          "name": "totalClaimCount",
          "type": "uint256"
        }
      ],
      "name": "createRedPacket",
      "outputs": [
        {
          "internalType": "contract RedPacket",
          "name": "",
          "type": "address"
        }
      ],
      "stateMutability": "payable",
      "type": "function"
    },
    {
      "inputs": [
        {
          "internalType": "uint256",
          "name": "",
          "type": "uint256"
        }
      ],
      "name": "deployedRedPackets",
      "outputs": [
        {
          "internalType": "address",
          "name": "",
          "type": "address"
        }
      ],
      "stateMutability": "view",
      "type": "function"
    },
    {
      "inputs": [],
      "name": "getDeployedRedPackets",
      "outputs": [
        {
          "internalType": "address[]",
          "name": "",
          "type": "address[]"
        }
      ],
      "stateMutability": "view",
      "type": "function"
    }
  ],
  "bytecode": "0x608060405234801561001057600080fd5b50611b1f806100206000396000f3fe608060405260043610620000385760003560e01c806307eecaeb146200003d57806343ada22114620000815780638d4b67a614620000b1575b600080fd5b3480156200004a57600080fd5b5062000069600480360381019062000063919062000307565b620000e7565b6040516200007891906200037e565b60405180910390f35b3480156200008e57600080fd5b506200009962000127565b604051620000a8919062000469565b60405180910390f35b620000cf6004803603810190620000c9919062000307565b620001b7565b604051620000de9190620004f8565b60405180910390f35b60008181548110620000f857600080fd5b906000526020600020016000915054906101000a900473ffffffffffffffffffffffffffffffffffffffff1681565b60606000805480602002602001604051908101604052809291908181526020018280548015620001ad57602002820191906000526020600020905b8160009054906101000a900473ffffffffffffffffffffffffffffffffffffffff1673ffffffffffffffffffffffffffffffffffffffff168152602001906001019080831162000162575b5050505050905090565b600080348333604051620001cb90620002b9565b620001d892919062000526565b6040518091039082f0905080158015620001f6573d6000803e3d6000fd5b5090506000819080600181540180825580915050600190039060005260206000200160009091909190916101000a81548173ffffffffffffffffffffffffffffffffffffffff021916908373ffffffffffffffffffffffffffffffffffffffff1602179055503373ffffffffffffffffffffffffffffffffffffffff167fea0069cce7555cead630eae3a062d2d39f28414e2e26110a59bd1c87cd119594828534604051620002a89392919062000553565b60405180910390a280915050919050565b611559806200059183390190565b600080fd5b6000819050919050565b620002e181620002cc565b8114620002ed57600080fd5b50565b6000813590506200030181620002d6565b92915050565b60006020828403121562000320576200031f620002c7565b5b60006200033084828501620002f0565b91505092915050565b600073ffffffffffffffffffffffffffffffffffffffff82169050919050565b6000620003668262000339565b9050919050565b620003788162000359565b82525050565b60006020820190506200039560008301846200036d565b92915050565b600081519050919050565b600082825260208201905092915050565b6000819050602082019050919050565b620003d28162000359565b82525050565b6000620003e68383620003c7565b60208301905092915050565b6000602082019050919050565b60006200040c826200039b565b620004188185620003a6565b93506200042583620003b7565b8060005b838110156200045c578151620004408882620003d8565b97506200044d83620003f2565b92505060018101905062000429565b5085935050505092915050565b60006020820190508181036000830152620004858184620003ff565b905092915050565b6000819050919050565b6000620004b8620004b2620004ac8462000339565b6200048d565b62000339565b9050919050565b6000620004cc8262000497565b9050919050565b6000620004e082620004bf565b9050919050565b620004f281620004d3565b82525050565b60006020820190506200050f6000830184620004e7565b92915050565b6200052081620002cc565b82525050565b60006040820190506200053d600083018562000515565b6200054c60208301846200036d565b9392505050565b60006060820190506200056a60008301866200036d565b62000579602083018562000515565b62000588604083018462000515565b94935050505056fe60806040526040516200155938038062001559833981810160405281019062000029919062000406565b600034116200006f576040517f08c379a00000000000000000000000000000000000000000000000000000000081526004016200006690620004ae565b60405180910390fd5b6001821015620000866001620001e060201b60201c565b6040516020016200009891906200060f565b60405160208183030381529060405290620000eb576040517f08c379a0000000000000000000000000000000000000000000000000000000008152600401620000e2919062000694565b60405180910390fd5b5081600381905550346004819055506000600660006101000a81548160ff021916908315150217905550806000806101000a81548173ffffffffffffffffffffffffffffffffffffffff021916908373ffffffffffffffffffffffffffffffffffffffff16021790555060008054906101000a900473ffffffffffffffffffffffffffffffffffffffff1673ffffffffffffffffffffffffffffffffffffffff167f0111f128647f3d74e048937dffcd3205f630b05dae9e9604c0ed4469cb2d962a620001bd6200035960201b60201c565b600354604051620001d0929190620006c9565b60405180910390a25050620008e5565b60606000820362000229576040518060400160405280600181526020017f3000000000000000000000000000000000000000000000000000000000000000815250905062000354565b600082905060005b6000821462000261578080620002479062000725565b915050600a82620002599190620007a1565b915062000231565b60008167ffffffffffffffff81111562000280576200027f620007d9565b5b6040519080825280601f01601f191660200182016040528015620002b35781602001600182028036833780820191505090505b5090505b600085146200034d57600182620002cf919062000808565b9150600a85620002e0919062000843565b6030620002ee91906200087b565b60f81b818381518110620003075762000306620008b6565b5b60200101907effffffffffffffffffffffffffffffffffffffffffffffffffffffffffffff1916908160001a905350600a85620003459190620007a1565b9450620002b7565b8093505050505b919050565b600047905090565b600080fd5b6000819050919050565b6200037b8162000366565b81146200038757600080fd5b50565b6000815190506200039b8162000370565b92915050565b600073ffffffffffffffffffffffffffffffffffffffff82169050919050565b6000620003ce82620003a1565b9050919050565b620003e081620003c1565b8114620003ec57600080fd5b50565b6000815190506200040081620003d5565b92915050565b6000806040838503121562000420576200041f62000361565b5b600062000430858286016200038a565b92505060206200044385828601620003ef565b9150509250929050565b600082825260208201905092915050565b7f4e6f2066756e64732073656e742077697468207472616e73616374696f6e2e00600082015250565b600062000496601f836200044d565b9150620004a3826200045e565b602082019050919050565b60006020820190508181036000830152620004c98162000487565b9050919050565b600081905092915050565b7f546f74616c20636c61696d732073686f756c642062652067726561746572207460008201527f68616e2000000000000000000000000000000000000000000000000000000000602082015250565b600062000539602483620004d0565b91506200054682620004db565b602482019050919050565b600081519050919050565b60005b838110156200057c5780820151818401526020810190506200055f565b60008484015250505050565b6000620005958262000551565b620005a18185620004d0565b9350620005b38185602086016200055c565b80840191505092915050565b7f2e00000000000000000000000000000000000000000000000000000000000000600082015250565b6000620005f7600183620004d0565b91506200060482620005bf565b600182019050919050565b60006200061c826200052a565b91506200062a828462000588565b91506200063782620005e8565b915081905092915050565b6000601f19601f8301169050919050565b6000620006608262000551565b6200066c81856200044d565b93506200067e8185602086016200055c565b620006898162000642565b840191505092915050565b60006020820190508181036000830152620006b0818462000653565b905092915050565b620006c38162000366565b82525050565b6000604082019050620006e06000830185620006b8565b620006ef6020830184620006b8565b9392505050565b7f4e487b7100000000000000000000000000000000000000000000000000000000600052601160045260246000fd5b6000620007328262000366565b91507fffffffffffffffffffffffffffffffffffffffffffffffffffffffffffffffff8203620007675762000766620006f6565b5b600182019050919050565b7f4e487b7100000000000000000000000000000000000000000000000000000000600052601260045260246000fd5b6000620007ae8262000366565b9150620007bb8362000366565b925082620007ce57620007cd62000772565b5b828204905092915050565b7f4e487b7100000000000000000000000000000000000000000000000000000000600052604160045260246000fd5b6000620008158262000366565b9150620008228362000366565b92508282039050818111156200083d576200083c620006f6565b5b92915050565b6000620008508262000366565b91506200085d8362000366565b92508262000870576200086f62000772565b5b828206905092915050565b6000620008888262000366565b9150620008958362000366565b9250828201905080821115620008b057620008af620006f6565b5b92915050565b7f4e487b7100000000000000000000000000000000000000000000000000000000600052603260045260246000fd5b610c6480620008f56000396000f3fe608060405234801561001057600080fd5b50600436106100415760003560e01c80631e83409a1461004657806379599f96146100765780637a5b4f5914610094575b600080fd5b610060600480360381019061005b919061078a565b6100b2565b60405161006d91906107d0565b60405180910390f35b61007e610402565b60405161008b91906107d0565b60405180910390f35b61009c6105ef565b6040516100a991906108a3565b60405180910390f35b6000600660009054906101000a900460ff1615610104576040517f08c379a00000000000000000000000000000000000000000000000000000000081526004016100fb9061091b565b60405180910390fd5b6003546005541061014a576040517f08c379a000000000000000000000000000000000000000000000000000000000815260040161014190610987565b60405180910390fd5b60011515600260003373ffffffffffffffffffffffffffffffffffffffff1673ffffffffffffffffffffffffffffffffffffffff16815260200190815260200160002060009054906101000a900460ff161515036101dd576040517f08c379a00000000000000000000000000000000000000000000000000000000081526004016101d490610a19565b60405180910390fd5b60006101e76106de565b905060006003546004546101fb9190610a97565b9050600160035461020c9190610ac8565b600554148061021b5750818110155b156102ad578190506001600660006101000a81548160ff02191690831515021790555060008054906101000a900473ffffffffffffffffffffffffffffffffffffffff1673ffffffffffffffffffffffffffffffffffffffff167ff8664ccea4976576f029d089ff1f4655e7dcf73978fbb3d650061542fac6a660836040516102a491906107d0565b60405180910390a25b8373ffffffffffffffffffffffffffffffffffffffff166108fc829081150290604051600060405180830381858888f193505050501580156102f3573d6000803e3d6000fd5b506001600560008282546103079190610afc565b9250508190555080600160008673ffffffffffffffffffffffffffffffffffffffff1673ffffffffffffffffffffffffffffffffffffffff168152602001908152602001600020819055506001600260003373ffffffffffffffffffffffffffffffffffffffff1673ffffffffffffffffffffffffffffffffffffffff16815260200190815260200160002060006101000a81548160ff0219169083151502179055503373ffffffffffffffffffffffffffffffffffffffff167f258f59fa28ccfeccd403f705ce407294693e4f4e3599186b48778f6660e9935e826040516103f091906107d0565b60405180910390a28092505050919050565b6000600660009054906101000a900460ff1615610454576040517f08c379a000000000000000000000000000000000000000000000000000000000815260040161044b90610b7c565b60405180910390fd5b3373ffffffffffffffffffffffffffffffffffffffff1660008054906101000a900473ffffffffffffffffffffffffffffffffffffffff1673ffffffffffffffffffffffffffffffffffffffff16146104e2576040517f08c379a00000000000000000000000000000000000000000000000000000000081526004016104d990610c0e565b60405180910390fd5b60006104ec6106de565b9050600081111561055f5760008054906101000a900473ffffffffffffffffffffffffffffffffffffffff1673ffffffffffffffffffffffffffffffffffffffff166108fc829081150290604051600060405180830381858888f1935050505015801561055d573d6000803e3d6000fd5b505b60008054906101000a900473ffffffffffffffffffffffffffffffffffffffff1673ffffffffffffffffffffffffffffffffffffffff167ff8664ccea4976576f029d089ff1f4655e7dcf73978fbb3d650061542fac6a660826040516105c591906107d0565b60405180910390a26001600660006101000a81548160ff0219169083151502179055508091505090565b6105f76106e6565b6040518060e00160405280600354815260200160055460035461061a9190610ac8565b8152602001600454815260200161062f6106de565b8152602001600160003373ffffffffffffffffffffffffffffffffffffffff1673ffffffffffffffffffffffffffffffffffffffff1681526020019081526020016000205481526020016000600160003373ffffffffffffffffffffffffffffffffffffffff1673ffffffffffffffffffffffffffffffffffffffff16815260200190815260200160002054141515158152602001600660009054906101000a900460ff161515815250905090565b600047905090565b6040518060e0016040528060008152602001600081526020016000815260200160008152602001600081526020016000151581526020016000151581525090565b600080fd5b600073ffffffffffffffffffffffffffffffffffffffff82169050919050565b60006107578261072c565b9050919050565b6107678161074c565b811461077257600080fd5b50565b6000813590506107848161075e565b92915050565b6000602082840312156107a05761079f610727565b5b60006107ae84828501610775565b91505092915050565b6000819050919050565b6107ca816107b7565b82525050565b60006020820190506107e560008301846107c1565b92915050565b6107f4816107b7565b82525050565b60008115159050919050565b61080f816107fa565b82525050565b60e08201600082015161082b60008501826107eb565b50602082015161083e60208501826107eb565b50604082015161085160408501826107eb565b50606082015161086460608501826107eb565b50608082015161087760808501826107eb565b5060a082015161088a60a0850182610806565b5060c082015161089d60c0850182610806565b50505050565b600060e0820190506108b86000830184610815565b92915050565b600082825260208201905092915050565b7f5061636b65742068617320657870697265642e00000000000000000000000000600082015250565b60006109056013836108be565b9150610910826108cf565b602082019050919050565b60006020820190508181036000830152610934816108f8565b9050919050565b7f416c6c207061636b6574732068617665206265656e20636c61696d65642e0000600082015250565b6000610971601e836108be565b915061097c8261093b565b602082019050919050565b600060208201905081810360008301526109a081610964565b9050919050565b7f596f75206861766520616c726561647920636c61696d65642061207061636b6560008201527f742e000000000000000000000000000000000000000000000000000000000000602082015250565b6000610a036022836108be565b9150610a0e826109a7565b604082019050919050565b60006020820190508181036000830152610a32816109f6565b9050919050565b7f4e487b7100000000000000000000000000000000000000000000000000000000600052601260045260246000fd5b7f4e487b7100000000000000000000000000000000000000000000000000000000600052601160045260246000fd5b6000610aa2826107b7565b9150610aad836107b7565b925082610abd57610abc610a39565b5b828204905092915050565b6000610ad3826107b7565b9150610ade836107b7565b9250828203905081811115610af657610af5610a68565b5b92915050565b6000610b07826107b7565b9150610b12836107b7565b9250828201905080821115610b2a57610b29610a68565b5b92915050565b7f55524c2068617320616c726561647920657870697265642e0000000000000000600082015250565b6000610b666018836108be565b9150610b7182610b30565b602082019050919050565b60006020820190508181036000830152610b9581610b59565b9050919050565b7f55524c2077617320637265617465642077697468206120646966666572656e7460008201527f2077616c6c65742e000000000000000000000000000000000000000000000000602082015250565b6000610bf86028836108be565b9150610c0382610b9c565b604082019050919050565b60006020820190508181036000830152610c2781610beb565b905091905056fea264697066735822122000f1d05c580020815096379641c9c87db52087fb6f9e65946585d840fb59bc2f64736f6c63430008140033a26469706673582212201d2bc6528d055084cd4eab13e407c16c01d4182efee0db3bb43bc0d291ae5d3264736f6c63430008140033",
  "linkReferences": {},
  "deployedLinkReferences": {}
}