{
  "_format": "hh-sol-artifact-1",
  "contractName": "RedPacket",
  "sourceName": "contracts/RedPacket.sol",
  "abi": [
    {
      "inputs": [
        {
          "internalType": "uint256",
          "name": "_totalClaimCount",
          "type": "uint256"
        },
        {
          "internalType": "address",
          "name": "_creator",
          "type": "address"
        }
      ],
      "stateMutability": "payable",
      "type": "constructor"
    },
    {
      "anonymous": false,
      "inputs": [
        {
          "indexed": true,
          "internalType": "address",
          "name": "claimer",
          "type": "address"
        },
        {
          "indexed": false,
          "internalType": "uint256",
          "name": "amount",
          "type": "uint256"
        }
      ],
      "name": "PacketClaimed",
      "type": "event"
    },
    {
      "anonymous": false,
      "inputs": [
        {
          "indexed": true,
          "internalType": "address",
          "name": "creator",
          "type": "address"
        },
        {
          "indexed": false,
          "internalType": "uint256",
          "name": "totalBalance",
          "type": "uint256"
        },
        {
          "indexed": false,
          "internalType": "uint256",
          "name": "totalClaimCount",
          "type": "uint256"
        }
      ],
      "name": "PacketCreated",
      "type": "event"
    },
    {
      "anonymous": false,
      "inputs": [
        {
          "indexed": true,
          "internalType": "address",
          "name": "creator",
          "type": "address"
        },
        {
          "indexed": false,
          "internalType": "uint256",
          "name": "remainingBalance",
          "type": "uint256"
        }
      ],
      "name": "PacketExpired",
      "type": "event"
    },
    {
      "inputs": [
        {
          "internalType": "address",
          "name": "receiver",
          "type": "address"
        }
      ],
      "name": "claim",
      "outputs": [
        {
          "internalType": "uint256",
          "name": "",
          "type": "uint256"
        }
      ],
      "stateMutability": "nonpayable",
      "type": "function"
    },
    {
      "inputs": [
        {
          "internalType": "uint256",
          "name": "",
          "type": "uint256"
        }
      ],
      "name": "claimedAddresses",
      "outputs": [
        {
          "internalType": "address",
          "name": "",
          "type": "address"
        }
      ],
      "stateMutability": "view",
      "type": "function"
    },
    {
      "inputs": [
        {
          "internalType": "address",
          "name": "",
          "type": "address"
        }
      ],
      "name": "claimedAmounts",
      "outputs": [
        {
          "internalType": "uint256",
          "name": "",
          "type": "uint256"
        }
      ],
      "stateMutability": "view",
      "type": "function"
    },
    {
      "inputs": [],
      "name": "creator",
      "outputs": [
        {
          "internalType": "address",
          "name": "",
          "type": "address"
        }
      ],
      "stateMutability": "view",
      "type": "function"
    },
    {
      "inputs": [],
      "name": "expire",
      "outputs": [
        {
          "internalType": "uint256",
          "name": "",
          "type": "uint256"
        }
      ],
      "stateMutability": "nonpayable",
      "type": "function"
    },
    {
      "inputs": [],
      "name": "expired",
      "outputs": [
        {
          "internalType": "bool",
          "name": "",
          "type": "bool"
        }
      ],
      "stateMutability": "view",
      "type": "function"
    },
    {
      "inputs": [],
      "name": "getClaimedAddresses",
      "outputs": [
        {
          "internalType": "address[]",
          "name": "",
          "type": "address[]"
        }
      ],
      "stateMutability": "view",
      "type": "function"
    },
    {
      "inputs": [],
      "name": "getClaimedCount",
      "outputs": [
        {
          "internalType": "uint256",
          "name": "",
          "type": "uint256"
        }
      ],
      "stateMutability": "view",
      "type": "function"
    },
    {
      "inputs": [],
      "name": "getCurrentBalance",
      "outputs": [
        {
          "internalType": "uint256",
          "name": "",
          "type": "uint256"
        }
      ],
      "stateMutability": "view",
      "type": "function"
    },
    {
      "inputs": [],
      "name": "totalBalance",
      "outputs": [
        {
          "internalType": "uint256",
          "name": "",
          "type": "uint256"
        }
      ],
      "stateMutability": "view",
      "type": "function"
    },
    {
      "inputs": [],
      "name": "totalClaimCount",
      "outputs": [
        {
          "internalType": "uint256",
          "name": "",
          "type": "uint256"
        }
      ],
      "stateMutability": "view",
      "type": "function"
    }
  ],
  "bytecode": "0x6080604052604051620015b4380380620015b4833981810160405281019062000029919062000259565b600034116200006f576040517f08c379a0000000000000000000000000000000000000000000000000000000008152600401620000669062000301565b60405180910390fd5b60008211620000b5576040517f08c379a0000000000000000000000000000000000000000000000000000000008152600401620000ac9062000399565b60405180910390fd5b81600081905550346001819055506000600260006101000a81548160ff02191690831515021790555080600560006101000a81548173ffffffffffffffffffffffffffffffffffffffff021916908373ffffffffffffffffffffffffffffffffffffffff160217905550600560009054906101000a900473ffffffffffffffffffffffffffffffffffffffff1673ffffffffffffffffffffffffffffffffffffffff167f0111f128647f3d74e048937dffcd3205f630b05dae9e9604c0ed4469cb2d962a62000189620001ac60201b60201c565b6000546040516200019c929190620003cc565b60405180910390a25050620003f9565b600047905090565b600080fd5b6000819050919050565b620001ce81620001b9565b8114620001da57600080fd5b50565b600081519050620001ee81620001c3565b92915050565b600073ffffffffffffffffffffffffffffffffffffffff82169050919050565b60006200022182620001f4565b9050919050565b620002338162000214565b81146200023f57600080fd5b50565b600081519050620002538162000228565b92915050565b60008060408385031215620002735762000272620001b4565b5b60006200028385828601620001dd565b9250506020620002968582860162000242565b9150509250929050565b600082825260208201905092915050565b7f4e6f2066756e64732073656e742077697468207472616e73616374696f6e2e00600082015250565b6000620002e9601f83620002a0565b9150620002f682620002b1565b602082019050919050565b600060208201905081810360008301526200031c81620002da565b9050919050565b7f546f74616c20636c61696d732073686f756c642062652067726561746572207460008201527f68616e20302e0000000000000000000000000000000000000000000000000000602082015250565b600062000381602683620002a0565b91506200038e8262000323565b604082019050919050565b60006020820190508181036000830152620003b48162000372565b9050919050565b620003c681620001b9565b82525050565b6000604082019050620003e36000830185620003bb565b620003f26020830184620003bb565b9392505050565b6111ab80620004096000396000f3fe608060405234801561001057600080fd5b50600436106100a95760003560e01c80634c2067c7116100715780634c2067c71461016857806371417b321461018657806379599f96146101b6578063a5749710146101d4578063ad7a672f146101f2578063cc7a487014610210576100a9565b806302d05d3f146100ae57806308f452bc146100cc5780630e90c159146100ea5780631e83409a1461011a5780633b39ccc91461014a575b600080fd5b6100b661022e565b6040516100c39190610a3d565b60405180910390f35b6100d4610254565b6040516100e19190610b16565b60405180910390f35b61010460048036038101906100ff9190610b73565b6102e2565b6040516101119190610a3d565b60405180910390f35b610134600480360381019061012f9190610bcc565b610321565b6040516101419190610c08565b60405180910390f35b6101526107bd565b60405161015f9190610c08565b60405180910390f35b6101706107c3565b60405161017d9190610c3e565b60405180910390f35b6101a0600480360381019061019b9190610bcc565b6107d6565b6040516101ad9190610c08565b60405180910390f35b6101be6107ee565b6040516101cb9190610c08565b60405180910390f35b6101dc6109e1565b6040516101e99190610c08565b60405180910390f35b6101fa6109e9565b6040516102079190610c08565b60405180910390f35b6102186109ef565b6040516102259190610c08565b60405180910390f35b600560009054906101000a900473ffffffffffffffffffffffffffffffffffffffff1681565b606060038054806020026020016040519081016040528092919081815260200182805480156102d857602002820191906000526020600020905b8160009054906101000a900473ffffffffffffffffffffffffffffffffffffffff1673ffffffffffffffffffffffffffffffffffffffff168152602001906001019080831161028e575b5050505050905090565b600381815481106102f257600080fd5b906000526020600020016000915054906101000a900473ffffffffffffffffffffffffffffffffffffffff1681565b60008061032c6109ef565b9050600260009054906101000a900460ff161561037e576040517f08c379a000000000000000000000000000000000000000000000000000000000815260040161037590610cb6565b60405180910390fd5b60005481106103c2576040517f08c379a00000000000000000000000000000000000000000000000000000000081526004016103b990610d22565b60405180910390fd5b6000600460008573ffffffffffffffffffffffffffffffffffffffff1673ffffffffffffffffffffffffffffffffffffffff1681526020019081526020016000205414610444576040517f08c379a000000000000000000000000000000000000000000000000000000000815260040161043b90610db4565b60405180910390fd5b8273ffffffffffffffffffffffffffffffffffffffff16600560009054906101000a900473ffffffffffffffffffffffffffffffffffffffff1673ffffffffffffffffffffffffffffffffffffffff16036104d4576040517f08c379a00000000000000000000000000000000000000000000000000000000081526004016104cb90610e20565b60405180910390fd5b600073ffffffffffffffffffffffffffffffffffffffff168373ffffffffffffffffffffffffffffffffffffffff1603610543576040517f08c379a000000000000000000000000000000000000000000000000000000000815260040161053a90610e8c565b60405180910390fd5b60008342604051602001610558929190610f15565b6040516020818303038152906040528051906020012060001c9050600061057d6109e1565b90506000600a600f856000546105939190610f70565b8461059e9190610fd3565b6105a89190611004565b6105b29190610fd3565b9050600081846105c29190611046565b905060016000546105d39190610f70565b8514806105e05750828110155b15610674578290506001600260006101000a81548160ff021916908315150217905550600560009054906101000a900473ffffffffffffffffffffffffffffffffffffffff1673ffffffffffffffffffffffffffffffffffffffff167ff8664ccea4976576f029d089ff1f4655e7dcf73978fbb3d650061542fac6a6608460405161066b9190610c08565b60405180910390a25b6003879080600181540180825580915050600190039060005260206000200160009091909190916101000a81548173ffffffffffffffffffffffffffffffffffffffff021916908373ffffffffffffffffffffffffffffffffffffffff16021790555080600460008973ffffffffffffffffffffffffffffffffffffffff1673ffffffffffffffffffffffffffffffffffffffff168152602001908152602001600020819055508673ffffffffffffffffffffffffffffffffffffffff166108fc829081150290604051600060405180830381858888f19350505050158015610761573d6000803e3d6000fd5b508673ffffffffffffffffffffffffffffffffffffffff167f258f59fa28ccfeccd403f705ce407294693e4f4e3599186b48778f6660e9935e826040516107a89190610c08565b60405180910390a28095505050505050919050565b60005481565b600260009054906101000a900460ff1681565b60046020528060005260406000206000915090505481565b6000600260009054906101000a900460ff1615610840576040517f08c379a0000000000000000000000000000000000000000000000000000000008152600401610837906110c3565b60405180910390fd5b3373ffffffffffffffffffffffffffffffffffffffff16600560009054906101000a900473ffffffffffffffffffffffffffffffffffffffff1673ffffffffffffffffffffffffffffffffffffffff16146108d0576040517f08c379a00000000000000000000000000000000000000000000000000000000081526004016108c790611155565b60405180910390fd5b6001600260006101000a81548160ff02191690831515021790555060006108f56109e1565b9050600081111561096a57600560009054906101000a900473ffffffffffffffffffffffffffffffffffffffff1673ffffffffffffffffffffffffffffffffffffffff166108fc829081150290604051600060405180830381858888f19350505050158015610968573d6000803e3d6000fd5b505b600560009054906101000a900473ffffffffffffffffffffffffffffffffffffffff1673ffffffffffffffffffffffffffffffffffffffff167ff8664ccea4976576f029d089ff1f4655e7dcf73978fbb3d650061542fac6a660826040516109d29190610c08565b60405180910390a28091505090565b600047905090565b60015481565b6000600380549050905090565b600073ffffffffffffffffffffffffffffffffffffffff82169050919050565b6000610a27826109fc565b9050919050565b610a3781610a1c565b82525050565b6000602082019050610a526000830184610a2e565b92915050565b600081519050919050565b600082825260208201905092915050565b6000819050602082019050919050565b610a8d81610a1c565b82525050565b6000610a9f8383610a84565b60208301905092915050565b6000602082019050919050565b6000610ac382610a58565b610acd8185610a63565b9350610ad883610a74565b8060005b83811015610b09578151610af08882610a93565b9750610afb83610aab565b925050600181019050610adc565b5085935050505092915050565b60006020820190508181036000830152610b308184610ab8565b905092915050565b600080fd5b6000819050919050565b610b5081610b3d565b8114610b5b57600080fd5b50565b600081359050610b6d81610b47565b92915050565b600060208284031215610b8957610b88610b38565b5b6000610b9784828501610b5e565b91505092915050565b610ba981610a1c565b8114610bb457600080fd5b50565b600081359050610bc681610ba0565b92915050565b600060208284031215610be257610be1610b38565b5b6000610bf084828501610bb7565b91505092915050565b610c0281610b3d565b82525050565b6000602082019050610c1d6000830184610bf9565b92915050565b60008115159050919050565b610c3881610c23565b82525050565b6000602082019050610c536000830184610c2f565b92915050565b600082825260208201905092915050565b7f5061636b65742068617320657870697265642e00000000000000000000000000600082015250565b6000610ca0601383610c59565b9150610cab82610c6a565b602082019050919050565b60006020820190508181036000830152610ccf81610c93565b9050919050565b7f416c6c207061636b6574732068617665206265656e20636c61696d65642e0000600082015250565b6000610d0c601e83610c59565b9150610d1782610cd6565b602082019050919050565b60006020820190508181036000830152610d3b81610cff565b9050919050565b7f596f75206861766520616c726561647920636c61696d65642061207061636b6560008201527f742e000000000000000000000000000000000000000000000000000000000000602082015250565b6000610d9e602283610c59565b9150610da982610d42565b604082019050919050565b60006020820190508181036000830152610dcd81610d91565b9050919050565b7f43726561746f722063616e6e6f7420636c61696d2061207061636b65742e0000600082015250565b6000610e0a601e83610c59565b9150610e1582610dd4565b602082019050919050565b60006020820190508181036000830152610e3981610dfd565b9050919050565b7f526563656976657220616464726573732063616e6e6f74206265203078300000600082015250565b6000610e76601e83610c59565b9150610e8182610e40565b602082019050919050565b60006020820190508181036000830152610ea581610e69565b9050919050565b60008160601b9050919050565b6000610ec482610eac565b9050919050565b6000610ed682610eb9565b9050919050565b610eee610ee982610a1c565b610ecb565b82525050565b6000819050919050565b610f0f610f0a82610b3d565b610ef4565b82525050565b6000610f218285610edd565b601482019150610f318284610efe565b6020820191508190509392505050565b7f4e487b7100000000000000000000000000000000000000000000000000000000600052601160045260246000fd5b6000610f7b82610b3d565b9150610f8683610b3d565b9250828203905081811115610f9e57610f9d610f41565b5b92915050565b7f4e487b7100000000000000000000000000000000000000000000000000000000600052601260045260246000fd5b6000610fde82610b3d565b9150610fe983610b3d565b925082610ff957610ff8610fa4565b5b828204905092915050565b600061100f82610b3d565b915061101a83610b3d565b925082820261102881610b3d565b9150828204841483151761103f5761103e610f41565b5b5092915050565b600061105182610b3d565b915061105c83610b3d565b92508261106c5761106b610fa4565b5b828206905092915050565b7f5061636b65742068617320616c726561647920657870697265642e0000000000600082015250565b60006110ad601b83610c59565b91506110b882611077565b602082019050919050565b600060208201905081810360008301526110dc816110a0565b9050919050565b7f4f6e6c792063726561746f722063616e206578706972652061207061636b657460008201527f2e00000000000000000000000000000000000000000000000000000000000000602082015250565b600061113f602183610c59565b915061114a826110e3565b604082019050919050565b6000602082019050818103600083015261116e81611132565b905091905056fea2646970667358221220fb0ed46b925aeda47dd43b6111ec39492c2608c55c338c88131da889ed82abdc64736f6c63430008140033",
  "linkReferences": {},
  "deployedLinkReferences": {}
}